:1000000015EF00F0EA6A060EE96EEF500DE0020E01
:10001000016E006A002EFED7012EFBD7970E006EF0
:10002000002EFED7EF2EF3D71200F86AD09E700E86
:10003000D36ED350C150C00B0F09C16E070EB46E02
:1000400095908C9095928C829584020E056EFA0E96
:10005000066ED8DF052EFBD795908C8095928C92FA
:100060009584020E056EFA0E066ECCDF052EFBD7C8
:10007000958095928C9295948C84020E056EFA0E62
:10008000066EC0DF052EFBD7958095928C829594E5
:100090008C94020E056EFA0E066EB4DF052EFBD7A9
:1000A00095908C90958295948C84020E056EFA0E34
:1000B000066EA8DF052EFBD795908C8095829594CF
:1000C0008C94020E056EFA0E066E9CDF052EFBD791
:0400D000B7D703009B
:020000040030CA
:0E0000003FC9381E0087A1000FC00FE00F405F
:00000001FF
;PIC18F4550
;CRC=D5B1  CREATED="09-Feb-22 05:48"
